{
  "contractName": "TwoFA",
  "abi": [
    {
      "constant": true,
      "inputs": [],
      "name": "name",
      "outputs": [
        {
          "name": "",
          "type": "string"
        }
      ],
      "payable": false,
      "stateMutability": "view",
      "type": "function",
      "signature": "0x06fdde03"
    },
    {
      "constant": true,
      "inputs": [
        {
          "name": "",
          "type": "uint256"
        },
        {
          "name": "",
          "type": "address"
        }
      ],
      "name": "docs",
      "outputs": [
        {
          "name": "owner",
          "type": "address"
        },
        {
          "name": "isValue",
          "type": "bool"
        },
        {
          "name": "isRevoked",
          "type": "bool"
        }
      ],
      "payable": false,
      "stateMutability": "view",
      "type": "function",
      "signature": "0xa605e2f2"
    },
    {
      "anonymous": false,
      "inputs": [
        {
          "indexed": false,
          "name": "owner",
          "type": "address"
        },
        {
          "indexed": false,
          "name": "isValue",
          "type": "bool"
        },
        {
          "indexed": false,
          "name": "isRevoked",
          "type": "bool"
        }
      ],
      "name": "CreatedDocument",
      "type": "event",
      "signature": "0xfe7139cb48a84fde625ac3a9b79c718620c9322a54d450587a535e27c0429f4c"
    },
    {
      "constant": false,
      "inputs": [
        {
          "name": "_secret",
          "type": "uint256"
        }
      ],
      "name": "createDocument",
      "outputs": [],
      "payable": false,
      "stateMutability": "nonpayable",
      "type": "function",
      "signature": "0xf463edd1"
    }
  ],
  "bytecode": "0x60806040526040805190810160405280600a81526020017f417574682d436861696e000000000000000000000000000000000000000000008152506000908051906020019061004f929190610062565b5034801561005c57600080fd5b50610107565b828054600181600116156101000203166002900490600052602060002090601f016020900481019282601f106100a357805160ff19168380011785556100d1565b828001600101855582156100d1579182015b828111156100d05782518255916020019190600101906100b5565b5b5090506100de91906100e2565b5090565b61010491905b808211156101005760008160009055506001016100e8565b5090565b90565b6104a5806101166000396000f3fe608060405260043610610057576000357c0100000000000000000000000000000000000000000000000000000000900463ffffffff16806306fdde031461005c578063a605e2f2146100ec578063f463edd11461019d575b600080fd5b34801561006857600080fd5b506100716101d8565b6040518080602001828103825283818151815260200191508051906020019080838360005b838110156100b1578082015181840152602081019050610096565b50505050905090810190601f1680156100de5780820380516001836020036101000a031916815260200191505b509250505060405180910390f35b3480156100f857600080fd5b506101456004803603604081101561010f57600080fd5b8101908080359060200190929190803573ffffffffffffffffffffffffffffffffffffffff169060200190929190505050610276565b604051808473ffffffffffffffffffffffffffffffffffffffff1673ffffffffffffffffffffffffffffffffffffffff1681526020018315151515815260200182151515158152602001935050505060405180910390f35b3480156101a957600080fd5b506101d6600480360360208110156101c057600080fd5b81019080803590602001909291905050506102e7565b005b60008054600181600116156101000203166002900480601f01602080910402602001604051908101604052809291908181526020018280546001816001161561010002031660029004801561026e5780601f106102435761010080835404028352916020019161026e565b820191906000526020600020905b81548152906001019060200180831161025157829003601f168201915b505050505081565b6001602052816000526040600020602052806000526040600020600091509150508060000160009054906101000a900473ffffffffffffffffffffffffffffffffffffffff16908060000160149054906101000a900460ff16908060000160159054906101000a900460ff16905083565b6060604051908101604052803373ffffffffffffffffffffffffffffffffffffffff168152602001600115158152602001600015158152506001600083815260200190815260200160002060003373ffffffffffffffffffffffffffffffffffffffff1673ffffffffffffffffffffffffffffffffffffffff16815260200190815260200160002060008201518160000160006101000a81548173ffffffffffffffffffffffffffffffffffffffff021916908373ffffffffffffffffffffffffffffffffffffffff16021790555060208201518160000160146101000a81548160ff02191690831515021790555060408201518160000160156101000a81548160ff0219169083151502179055509050507ffe7139cb48a84fde625ac3a9b79c718620c9322a54d450587a535e27c0429f4c3360016000604051808473ffffffffffffffffffffffffffffffffffffffff1673ffffffffffffffffffffffffffffffffffffffff1681526020018315151515815260200182151515158152602001935050505060405180910390a15056fea165627a7a72305820838660c88828a3bbfb7428a7001833a8df6599ec62b102b6a355277dc0e45f5e0029",
  "source": "pragma solidity ^0.5.0;\r\n\r\ncontract TwoFA { \r\n    string public name = \"Auth-Chain\";\r\n    //Struct\r\n    struct Document{\r\n        address owner;\r\n        bool isValue;\r\n        bool isRevoked;   \r\n    }\r\n\r\n    //mapping\r\n    //secret_key_of_organization ----> address ----> data\r\n    mapping(uint => mapping(address => Document)) public docs;\r\n\r\n    //events\r\n    event CreatedDocument (\r\n        address owner,\r\n        bool isValue,\r\n        bool isRevoked\r\n    );\r\n\r\n    function createDocument(uint256  _secret) public {\r\n        docs[_secret][msg.sender] = Document(msg.sender,true,false);\r\n        emit CreatedDocument(msg.sender,true,false);\r\n    }\r\n\r\n\r\n}",
  "sourcePath": "C:/Users/user/Desktop/Blockchain/AuthMeWithChain/src/contracts/TwoFA.sol",
  "compiler": {
    "name": "solc",
    "version": "0.5.0+commit.1d4f565a.Emscripten.clang"
  },
  "schemaVersion": "3.0.2",
  "updatedAt": "2022-01-29T14:17:21.387Z",
  "devdoc": {
    "methods": {}
  },
  "userdoc": {
    "methods": {}
  }
}