{
  "contractName": "TwoFA",
  "abi": [
    {
      "constant": true,
      "inputs": [],
      "name": "name",
      "outputs": [
        {
          "name": "",
          "type": "string"
        }
      ],
      "payable": false,
      "stateMutability": "view",
      "type": "function",
      "signature": "0x06fdde03"
    },
    {
      "constant": true,
      "inputs": [
        {
          "name": "",
          "type": "uint256"
        },
        {
          "name": "",
          "type": "address"
        }
      ],
      "name": "docs",
      "outputs": [
        {
          "name": "owner",
          "type": "address"
        },
        {
          "name": "isValue",
          "type": "bool"
        },
        {
          "name": "isRevoked",
          "type": "bool"
        }
      ],
      "payable": false,
      "stateMutability": "view",
      "type": "function",
      "signature": "0xa605e2f2"
    },
    {
      "constant": true,
      "inputs": [
        {
          "name": "",
          "type": "uint256"
        }
      ],
      "name": "admindoc",
      "outputs": [
        {
          "name": "",
          "type": "address"
        }
      ],
      "payable": false,
      "stateMutability": "view",
      "type": "function",
      "signature": "0xcf4d3592"
    },
    {
      "anonymous": false,
      "inputs": [
        {
          "indexed": false,
          "name": "owner",
          "type": "address"
        },
        {
          "indexed": false,
          "name": "isValue",
          "type": "bool"
        },
        {
          "indexed": false,
          "name": "isRevoked",
          "type": "bool"
        }
      ],
      "name": "CreatedDocument",
      "type": "event",
      "signature": "0xfe7139cb48a84fde625ac3a9b79c718620c9322a54d450587a535e27c0429f4c"
    },
    {
      "constant": false,
      "inputs": [
        {
          "name": "_secret",
          "type": "uint256"
        }
      ],
      "name": "createDocument",
      "outputs": [],
      "payable": false,
      "stateMutability": "nonpayable",
      "type": "function",
      "signature": "0xf463edd1"
    },
    {
      "constant": false,
      "inputs": [
        {
          "name": "_secret",
          "type": "uint256"
        }
      ],
      "name": "registerAdmin",
      "outputs": [],
      "payable": false,
      "stateMutability": "nonpayable",
      "type": "function",
      "signature": "0x94845254"
    },
    {
      "constant": false,
      "inputs": [
        {
          "name": "_secret",
          "type": "uint256"
        },
        {
          "name": "_adr",
          "type": "address"
        }
      ],
      "name": "addMember",
      "outputs": [],
      "payable": false,
      "stateMutability": "nonpayable",
      "type": "function",
      "signature": "0x74d0a676"
    }
  ],
  "bytecode": "0x60806040526040805190810160405280600a81526020017f417574682d436861696e000000000000000000000000000000000000000000008152506000908051906020019061004f929190610062565b5034801561005c57600080fd5b50610107565b828054600181600116156101000203166002900490600052602060002090601f016020900481019282601f106100a357805160ff19168380011785556100d1565b828001600101855582156100d1579182015b828111156100d05782518255916020019190600101906100b5565b5b5090506100de91906100e2565b5090565b61010491905b808211156101005760008160009055506001016100e8565b5090565b90565b6108c8806101166000396000f3fe608060405260043610610078576000357c0100000000000000000000000000000000000000000000000000000000900463ffffffff16806306fdde031461007d57806374d0a6761461010d5780639484525414610168578063a605e2f2146101a3578063cf4d359214610254578063f463edd1146102cf575b600080fd5b34801561008957600080fd5b5061009261030a565b6040518080602001828103825283818151815260200191508051906020019080838360005b838110156100d25780820151818401526020810190506100b7565b50505050905090810190601f1680156100ff5780820380516001836020036101000a031916815260200191505b509250505060405180910390f35b34801561011957600080fd5b506101666004803603604081101561013057600080fd5b8101908080359060200190929190803573ffffffffffffffffffffffffffffffffffffffff1690602001909291905050506103a8565b005b34801561017457600080fd5b506101a16004803603602081101561018b57600080fd5b8101908080359060200190929190505050610611565b005b3480156101af57600080fd5b506101fc600480360360408110156101c657600080fd5b8101908080359060200190929190803573ffffffffffffffffffffffffffffffffffffffff169060200190929190505050610666565b604051808473ffffffffffffffffffffffffffffffffffffffff1673ffffffffffffffffffffffffffffffffffffffff1681526020018315151515815260200182151515158152602001935050505060405180910390f35b34801561026057600080fd5b5061028d6004803603602081101561027757600080fd5b81019080803590602001909291905050506106d7565b604051808273ffffffffffffffffffffffffffffffffffffffff1673ffffffffffffffffffffffffffffffffffffffff16815260200191505060405180910390f35b3480156102db57600080fd5b50610308600480360360208110156102f257600080fd5b810190808035906020019092919050505061070a565b005b60008054600181600116156101000203166002900480601f0160208091040260200160405190810160405280929190818152602001828054600181600116156101000203166002900480156103a05780601f10610375576101008083540402835291602001916103a0565b820191906000526020600020905b81548152906001019060200180831161038357829003601f168201915b505050505081565b3373ffffffffffffffffffffffffffffffffffffffff166002600084815260200190815260200160002060009054906101000a900473ffffffffffffffffffffffffffffffffffffffff1673ffffffffffffffffffffffffffffffffffffffff1614151561047e576040517f08c379a00000000000000000000000000000000000000000000000000000000081526004018080602001828103825260098152602001807f4e6f7420666f756e64000000000000000000000000000000000000000000000081525060200191505060405180910390fd5b6060604051908101604052803373ffffffffffffffffffffffffffffffffffffffff168152602001600115158152602001600015158152506001600084815260200190815260200160002060008373ffffffffffffffffffffffffffffffffffffffff1673ffffffffffffffffffffffffffffffffffffffff16815260200190815260200160002060008201518160000160006101000a81548173ffffffffffffffffffffffffffffffffffffffff021916908373ffffffffffffffffffffffffffffffffffffffff16021790555060208201518160000160146101000a81548160ff02191690831515021790555060408201518160000160156101000a81548160ff0219169083151502179055509050507ffe7139cb48a84fde625ac3a9b79c718620c9322a54d450587a535e27c0429f4c3360016000604051808473ffffffffffffffffffffffffffffffffffffffff1673ffffffffffffffffffffffffffffffffffffffff1681526020018315151515815260200182151515158152602001935050505060405180910390a15050565b336002600083815260200190815260200160002060006101000a81548173ffffffffffffffffffffffffffffffffffffffff021916908373ffffffffffffffffffffffffffffffffffffffff16021790555050565b6001602052816000526040600020602052806000526040600020600091509150508060000160009054906101000a900473ffffffffffffffffffffffffffffffffffffffff16908060000160149054906101000a900460ff16908060000160159054906101000a900460ff16905083565b60026020528060005260406000206000915054906101000a900473ffffffffffffffffffffffffffffffffffffffff1681565b6060604051908101604052803373ffffffffffffffffffffffffffffffffffffffff168152602001600115158152602001600015158152506001600083815260200190815260200160002060003373ffffffffffffffffffffffffffffffffffffffff1673ffffffffffffffffffffffffffffffffffffffff16815260200190815260200160002060008201518160000160006101000a81548173ffffffffffffffffffffffffffffffffffffffff021916908373ffffffffffffffffffffffffffffffffffffffff16021790555060208201518160000160146101000a81548160ff02191690831515021790555060408201518160000160156101000a81548160ff0219169083151502179055509050507ffe7139cb48a84fde625ac3a9b79c718620c9322a54d450587a535e27c0429f4c3360016000604051808473ffffffffffffffffffffffffffffffffffffffff1673ffffffffffffffffffffffffffffffffffffffff1681526020018315151515815260200182151515158152602001935050505060405180910390a15056fea165627a7a72305820f51fc02d1438e563132dffec623f0231397bb083b0612f007bd8cad9f08c67ce0029",
  "source": "pragma solidity ^0.5.0;\r\n\r\ncontract TwoFA { \r\n    string public name = \"Auth-Chain\";\r\n    //Struct\r\n    struct Document{\r\n        address owner;\r\n        bool isValue;\r\n        bool isRevoked;   \r\n    }\r\n\r\n    //mapping\r\n    //secret_key_of_organization ----> address ----> data\r\n    mapping(uint => mapping(address => Document)) public docs;\r\n\r\n    //events\r\n    event CreatedDocument (\r\n        address owner,\r\n        bool isValue,\r\n        bool isRevoked\r\n    );\r\n\r\n    function createDocument(uint256  _secret) public {\r\n        docs[_secret][msg.sender] = Document(msg.sender,true,false);\r\n        emit CreatedDocument(msg.sender,true,false);\r\n    }\r\n\r\n   \r\n    mapping(uint => address) public admindoc;\r\n\r\n    function registerAdmin(uint256  _secret) public{\r\n        admindoc[_secret] = msg.sender;\r\n        \r\n    }\r\n\r\n    function addMember(uint256  _secret,address _adr)  public {\r\n        require(admindoc[_secret] == msg.sender,'Not found');\r\n\r\n        docs[_secret][_adr] = Document(msg.sender,true,false);\r\n        emit CreatedDocument(msg.sender,true,false);\r\n    }\r\n\r\n\r\n}",
  "sourcePath": "C:/Users/user/Desktop/Blockchain/AuthMeWithChain/src/contracts/TwoFA.sol",
  "compiler": {
    "name": "solc",
    "version": "0.5.0+commit.1d4f565a.Emscripten.clang"
  },
  "schemaVersion": "3.0.2",
  "updatedAt": "2022-02-11T07:17:24.991Z",
  "devdoc": {
    "methods": {}
  },
  "userdoc": {
    "methods": {}
  }
}